:020000040800F2
:1000000000280020A10C0008310C0008370C000863
:100010003D0C0008430C0008490C000800000000DB
:100020000000000000000000000000004F0C00086D
:100030005B0C000800000000670C0008730C00084F
:10004000E90C0008E90C0008E90C0008E90C0008BC
:10005000E90C0008E90C0008E90C0008E90C0008AC
:10006000E90C0008E90C0008E90C0008E90C00089C
:10007000810C0008E90C0008E90C0008E90C0008F4
:10008000E90C0008E90C0008E90C0008E90C00087C
:10009000E90C0008E90C0008E90C0008E90C00086C
:1000A000E90C0008E90C0008E90C0008E90C00085C
:1000B000E90C0008E90C000800000000E90C000849
:1000C000E90C00080000000000000000E90C000836
:1000D00000000000E90C0008E90C00080000000026
:1000E000E90C0008E90C0008E90C00080000000019
:1000F0000000000000000000000000000000000000
:0C01000000000000000000005FF808F1A3
:1001100010B5054C237833B9044B13B10448AFF341
:1001200000800123237010BD0C000020000000009F
:10013000082A000808B5034B1BB103490348AFF375
:10014000008008BD0000000010000020082A000800
:100150004FF0FF0C1CEAD0521EBF1CEAD15392EAAA
:100160000C0F93EA0C0F6FD01A4480EA010C400286
:1001700018BF5FEA41211ED04FF0006343EA5010E0
:1001800043EA5111A0FB01310CF00040B1F5000F22
:100190003EBF490041EAD3715B0040EA010062F1D1
:1001A0007F02FD2A1DD8B3F1004F40EBC25008BFBB
:1001B00020F00100704790F0000F0CF0004C08BFD9
:1001C00049024CEA502040EA51207F3AC2BFD2F1A6
:1001D000FF0340EAC250704740F400004FF00003B4
:1001E000013A5DDC12F1190FDCBF00F000407047EE
:1001F000C2F10002410021FA02F1C2F1200200FA2C
:1002000002FC5FEA310040F1000053EA4C0308BFF2
:1002100020EADC70704792F0000F00F0004C02BF43
:10022000400010F4000F013AF9D040EA0C0093F0BE
:10023000000F01F0004C02BF490011F4000F013B18
:10024000F9D041EA0C018FE70CEAD15392EA0C0F86
:1002500018BF93EA0C0F0AD030F0004C18BF31F0F1
:10026000004CD8D180EA010000F00040704790F0C7
:10027000000F17BF90F0004F084691F0000F91F06B
:10028000004F14D092EA0C0F01D142020FD193EA31
:100290000C0F03D14B0218BF084608D180EA0100B9
:1002A00000F0004040F0FE4040F40000704740F095
:1002B000FE4040F44000704781F0004102E000BF82
:1002C00083F0004330B54FEA41044FEA430594EA16
:1002D000050F08BF90EA020F1FBF54EA000C55EA51
:1002E000020C7FEA645C7FEA655C00F0E2804FEA22
:1002F0005454D4EB5555B8BF6D420CDD2C4480EA04
:10030000020281EA030382EA000083EA010180EA33
:10031000020281EA0303362D88BF30BD11F0004F81
:100320004FEA01314FF4801C4CEA113102D04042B7
:1003300061EB410113F0004F4FEA03334CEA1333F2
:1003400002D0524263EB430394EA050F00F0A7800A
:10035000A4F10104D5F1200E0DDB02FA0EFC22FA05
:1003600005F2801841F1000103FA0EF2801843FAF9
:1003700005F359410EE0A5F120050EF1200E012AEA
:1003800003FA0EFC28BF4CF0020C43FA05F3C01828
:1003900051EBE37101F0004507D54FF0000EDCF1A1
:1003A000000C7EEB00006EEB0101B1F5801F1BD34A
:1003B000B1F5001F0CD349085FEA30004FEA3C0C4E
:1003C00004F101044FEA445212F5800F80F09A8044
:1003D000BCF1004F08BF5FEA500C50F1000041EB48
:1003E000045141EA050130BD5FEA4C0C404141EB4C
:1003F0000101013C28BFB1F5801FE9D291F0000F47
:1004000004BF01460020B1FA81F308BF2033A3F1F5
:100410000B03B3F120020CDA0C3208DD02F1140CEC
:10042000C2F10C0201FA0CF021FA02F10CE002F127
:100430001402D8BFC2F1200C01FA02F120FA0CFC20
:10044000DCBF41EA0C019040E41AA2BF01EB045169
:10045000294330BD6FEA04041F3C1CDA0C340EDC67
:1004600004F11404C4F1200220FA04F001FA02F3AA
:1004700040EA030021FA04F345EA030130BDC4F168
:100480000C04C4F1200220FA02F001FA04F340EA5D
:100490000300294630BD21FA04F0294630BD94F00E
:1004A000000F83F4801306BF81F480110134013DF5
:1004B0004EE77FEA645C18BF7FEA655C29D094EA66
:1004C000050F08BF90EA020F05D054EA000C04BFE4
:1004D0001946104630BD91EA030F1EBF00210020CF
:1004E00030BD5FEA545C05D14000494128BF41F06E
:1004F000004130BD14F580043CBF01F5801130BDD2
:1005000001F0004545F0FE4141F470014FF000005C
:1005100030BD7FEA645C1ABF194610467FEA655C0D
:100520001CBF0B46024650EA013406BF52EA0335AF
:1005300091EA030F41F4002130BD00BF90F0000F9D
:1005400004BF0021704730B54FF4806404F13204D9
:100550004FF000054FF0000150E700BF90F0000F92
:1005600004BF0021704730B54FF4806404F13204B9
:1005700010F0004548BF40424FF000013EE700BF89
:1005800042004FEAE2014FEA31014FEA02701FBF19
:1005900012F07F4393F07F4F81F06051704732F04B
:1005A0007F4208BF704793F07F4F04BF41F40021A2
:1005B000704730B54FF4607401F0004521F0004100
:1005C0001CE700BF50EA010208BF704730B54FF08A
:1005D00000050AE050EA010208BF704730B511F08B
:1005E000004502D5404261EB41014FF4806404F1C3
:1005F00032045FEA915C3FF4D8AE4FF003025FEA49
:10060000DC0C18BF03325FEADC0C18BF033202EBCC
:10061000DC02C2F1200300FA03FC20FA02F001FA26
:1006200003FE40EA0E0021FA02F11444BDE600BFC9
:100630004FEA4102B2F1E04324BFB3F5001CDCF104
:10064000FE5C0DD901F0004C4FEAC0024CEA50703C
:10065000B2F1004F40EB830008BF20F0010070476B
:1006600011F0804F21D113F13872BCBF01F000406E
:10067000704741F480114FEA5252C2F11802C2F1A0
:10068000200C10FA0CF320FA02F018BF40F0010021
:100690004FEAC1234FEAD32303FA0CFC40EA0C00D3
:1006A00023FA02F34FEA4303CCE77FEA625307D110
:1006B00050EA01331EBF4FF0FE4040F44000704747
:1006C00001F0004040F0FE4040F40000704700BFE1
:1006D0004FF0FF3C06E000BF4FF0010C02E000BF0E
:1006E0004FF0010C4DF804CD4FEA40024FEA4103B0
:1006F0007FEA226C18BF7FEA236C11D001B052EA66
:10070000530C18BF90EA010F58BFB2EB030088BF2B
:10071000C81738BF6FEAE17018BF40F0010070479A
:100720007FEA226C02D15FEA402C05D17FEA236C7C
:10073000E4D15FEA412CE1D05DF8040B704700BFC3
:10074000844608466146FFE70FB5FFF7C9FF00285A
:1007500048BF10F1000F0FBD4DF808EDFFF7F4FF93
:100760000CBF012000205DF808FB00BF4DF808ED2C
:10077000FFF7EAFF34BF012000205DF808FB00BF4F
:100780004DF808EDFFF7E0FF94BF012000205DF871
:1007900008FB00BF4DF808EDFFF7D2FF94BF012022
:1007A00000205DF808FB00BF4DF808EDFFF7C8FF1B
:1007B00034BF012000205DF808FB00BF42000ED2CC
:1007C000B2F1FE4F0BD34FF09E03B3EB126209D48C
:1007D0004FEA002343F0004323FA02F070474FF042
:1007E0000000704712F1610F01D1420202D14FF0B7
:1007F000FF3070474FF00000704700BF000000005E
:1008000090B583B000AF00F071FA00F047F800F047
:1008100043F900F023F900F081F81D4B40F2F31288
:100820005A6300211B4801F061FB4FF000037B601D
:1008300021E019497868FFF78BFC0346144C1846F1
:10084000FFF7BCFF034663630021124801F04EFB33
:100850007868FFF795FE0CA3D3E90023FFF732FD7C
:1008600002460B4610461946FFF7E2FE03467B6040
:10087000322000F09DFA4FF07E517868FFF780FF3C
:100880000346002BD5D1D0E79A9999999999B93F08
:10089000002C01402800002000C0794480B590B0B1
:1008A00000AF07F1180328220021184602F0A4F82F
:1008B0003B1D00221A605A609A60DA601A610223B6
:1008C000BB610123BB621023FB6202237B63002315
:1008D000BB634FF4E013FB6307F11803184600F005
:1008E00075FE0346002B01D000F0ECF80F237B606F
:1008F0000223BB600023FB6000233B6100237B617C
:100900003B1D0121184601F0E3F80346002B01D0FE
:1009100000F0D8F800BF4037BD4680BD80B596B026
:1009200000AF07F1480300221A605A609A60DA604B
:1009300007F1400300221A605A6007F124030022E5
:100940001A605A609A60DA601A615A619A613B1DB6
:1009500020220021184602F04FF83E4B3E4A1A6012
:100960003C4B11225A603B4B00229A60394B40F2BB
:10097000E732DA60374B00221A61364B00225A61A7
:10098000344B00229A61334801F008FA0346002BE9
:1009900001D000F097F84FF48053BB6407F148038F
:1009A00019462C4801F0FCFB0346002B01D000F057
:1009B00089F8284801F041FA0346002B01D000F0E5
:1009C00081F800233B6400237B6407F14003194650
:1009D000204801F043FF0346002B01D000F072F8DD
:1009E00060237B620023BB620023FB6200233B6326
:1009F00000237B630023BB630023FB6307F1240315
:100A000000221946134801F00DFB0346002B01D0CC
:100A100000F058F800237B600023BB600023FB60DC
:100A200000233B6100237B614FF40053BB61002333
:100A30003B623B1D1946074801F068FF0346002B47
:100A400001D000F03FF8034800F0BEF800BF58376F
:100A5000BD4680BD28000020002C014080B582B03A
:100A600000AF0C4B5B690B4A43F001035361094B28
:100A70005B6903F001037B607B68002200210C208E
:100A800000F091FA0C2000F0AAFA00BF0837BD462A
:100A900080BD00BF0010024080B483B000AF084B9F
:100AA0009B69074A43F004039361054B9B6903F07C
:100AB00004037B607B6800BF0C37BD4680BC704779
:100AC0000010024080B400AF72B600BFFEE7000025
:100AD00080B485B000AF154B9B69144A43F0010305
:100AE0009361124B9B6903F00103BB60BB680F4B22
:100AF000DB690E4A43F08053D3610C4BDB6903F092
:100B000080537B607B680A4B5B68FB60FB6823F06B
:100B1000E063FB60FB6843F08063FB60044AFB68B2
:100B2000536000BF1437BD4680BC704700100240C0
:100B30000000014080B584B000AF78607B681B681E
:100B40001D4A934233D11D4B9B691C4A43F40063F9
:100B500093611A4B9B6903F40063FB60FB68184BBD
:100B6000184A1A60164B10225A60154B00229A60E0
:100B7000134B8022DA60124B4FF480721A61104BD3
:100B80004FF480625A610E4B00229A610C4B002296
:100B9000DA610B4800F03EFA0346002B01D0FFF764
:100BA00091FF7B68064A5A62054A7B68536200BF20
:100BB0001037BD4680BD00BF002C01400010024030
:100BC000700000201C00024080B588B000AF786043
:100BD00007F1100300221A605A609A60DA607B689D
:100BE0001B68104A934218D10F4B9B690E4A43F081
:100BF000040393610C4B9B6903F00403FB60FB68E7
:100C00004FF480733B6102237B610223FB6107F198
:100C100010031946054800F05DFB00BF2037BD46B4
:100C200080BD00BF002C01400010024000080140C0
:100C300080B400AFFEE780B400AFFEE780B400AF41
:100C4000FEE780B400AFFEE780B400AFFEE780B4FB
:100C500000AF00BFBD4680BC704780B400AF00BF8E
:100C6000BD4680BC704780B400AF00BFBD4680BCAD
:100C7000704780B500AF00F07FF800BF80BD000076
:100C800080B500AF024800F01FFA00BF80BD00BF72
:100C90007000002080B400AF00BFBD4680BC70472C
:100CA0000C480D490D4A002302E0D458C4500433C7
:100CB000C4188C42F9D30A4A0A4C002301E013609D
:100CC0000432A242FBD3FFF7E5FF01F071FEFFF70C
:100CD00097FD7047000000200C000020482A000803
:100CE0000C000020B8000020FEE7000080B500AF37
:100CF000084B1B68074A43F010031360032000F001
:100D000047F90F2000F008F8FFF7E2FE002318462D
:100D100080BD00BF0020024080B582B000AF786087
:100D2000124B1A68124B1B7819464FF47A73B3FBB7
:100D3000F1F3B2FBF3F3184600F05FF90346002B22
:100D400001D001230EE07B680F2B0AD800227968BE
:100D50004FF0FF3000F027F9064A7B68136000234C
:100D600000E0012318460837BD4680BD0000002082
:100D7000080000200400002080B400AF054B1B7861
:100D80001A46054B1B681344034A136000BFBD4657
:100D900080BC704708000020B400002080B400AF81
:100DA000024B1B681846BD4680BC7047B40000204B
:100DB00080B584B000AF7860FFF7F0FFB8607B6863
:100DC000FB60FB68B3F1FF3F05D00A4B1B781A4666
:100DD000FB681344FB6000BFFFF7E0FF0246BB68FF
:100DE000D31AFA689A42F7D800BF00BF1037BD4641
:100DF00080BD00BF0800002080B485B000AF7860DF
:100E00007B6803F00703FB600C4BDB68BB60BA68D0
:100E10004FF6FF031340BB60FB681A02BB68134325
:100E200043F0BF6343F40033BB60044ABB68D36044
:100E300000BF1437BD4680BC704700BF00ED00E026
:100E400080B400AF044BDB681B0A03F007031846AD
:100E5000BD4680BC704700BF00ED00E080B483B0A9
:100E600000AF0346FB7197F90730002B0BDBFB79D2
:100E700003F01F02064997F907305B09012000FAC9
:100E800002F241F8232000BF0C37BD4680BC7047FA
:100E900000E100E080B483B000AF03463960FB712D
:100EA00097F90730002B0ADB3B68DAB20C4997F957
:100EB00007301201D2B20B4483F800230AE03B68EA
:100EC000DAB20849FB7903F00F03043B1201D2B2F6
:100ED0000B441A7600BF0C37BD4680BC704700BF7C
:100EE00000E100E000ED00E080B489B000AFF86000
:100EF000B9607A60FB6803F00703FB61FB69C3F12B
:100F00000703042B28BF0423BB61FB690433062BB2
:100F100002D9FB69033B00E000237B614FF0FF3205
:100F2000BB6902FA03F3DA43BB681A407B699A4053
:100F30004FF0FF317B6901FA03F3D9437B680B4023
:100F4000134318462437BD4680BC704780B582B035
:100F500000AF78607B68013BB3F1807F01D3012350
:100F60000FE00A4A7B68013B53600F214FF0FF30CE
:100F7000FFF790FF054B00229A60044B07221A608E
:100F8000002318460837BD4680BD00BF10E000E0D2
:100F900080B582B000AF78607868FFF72DFF00BFA2
:100FA0000837BD4680BD80B586B000AF0346B96046
:100FB0007A60FB7300237B61FFF742FF78617A68F8
:100FC000B9687869FFF790FF024697F90F3011462C
:100FD0001846FFF75FFF00BF1837BD4680BD80B5DC
:100FE00082B000AF0346FB7197F907301846FFF750
:100FF00035FF00BF0837BD4680BD80B582B000AF69
:1010000078607868FFF7A2FF034618460837BD46A8
:1010100080BD000080B485B000AF78600023FB6025
:101020007B68002B01D1012343E07B681B681A46D3
:10103000224B1344224AA2FB03231B099A007B681C
:101040001A647B681F4ADA637B68022283F82120D6
:101050007B681B681B68FB60FB6823F47F5323F0ED
:101060003003FB607B685A687B689B681A437B6827
:10107000DB681A437B681B691A437B685B691A4308
:101080007B689B691A437B68DB691343FA681343E7
:10109000FB607B681B68FA681A607B6800229A63B1
:1010A0007B68012283F821207B68002283F82020BE
:1010B000002318461437BD4680BC7047F8FFFDBFBB
:1010C000CDCCCCCC0000024080B584B000AF7860BD
:1010D0007B68DB6B1B68FB607B681B681B68BB6005
:1010E0007B681B6C04229A40FB681340002B4FD096
:1010F000BB6803F00403002B4AD07B681B681B68A5
:1011000003F02003002B07D17B681B681A687B68FB
:101110001B6822F004021A607B681B68664A9342CF
:1011200029D07B681B68654A934222D07B681B6884
:10113000634A93421AD07B681B68624A934212D07A
:101140007B681B68604A93420AD07B681B685F4AD1
:10115000934202D14FF480030EE04FF080630BE026
:101160004FF4802308E04FF4804305E04FF48063A0
:1011700002E0402300E00423554A53607B68DB6AA9
:10118000002B00F094807B68DB6A786898478EE0DB
:101190007B681B6C02229A40FB681340002B56D0E0
:1011A000BB6803F00203002B51D07B681B681B68EF
:1011B00003F02003002B0BD17B681B681A687B6847
:1011C0001B6822F00A021A607B68012283F8212042
:1011D0007B681B68384A934229D07B681B68374A72
:1011E000934222D07B681B68354A93421AD07B68B1
:1011F0001B68344A934212D07B681B68324A934280
:101200000AD07B681B68314A934202D14FF4001325
:101210000EE04FF000730BE04FF4003308E04FF4A2
:10122000005305E04FF4007302E0202300E00223A6
:10123000274A53607B68002283F820207B689B6AE2
:10124000002B34D07B689B6A786898472FE07B68D6
:101250001B6C08229A40FB681340002B28D0BB6807
:1012600003F00803002B23D07B681B681A687B6897
:101270001B6822F00E021A607B681A6C7B68DB6BBD
:10128000012101FA02F25A607B6801229A637B68AD
:10129000012283F821207B68002283F820207B68CC
:1012A0001B6B002B04D07B681B6B7868984700BFD2
:1012B00000BF1037BD4680BD080002401C00024040
:1012C0003000024044000240580002406C000240DE
:1012D0000000024080B48BB000AF7860396000231A
:1012E0007B6200233B6261E101227B6A02FA03F325
:1012F000FB613B681B68FA691340BB61BA69FB6913
:101300009A4240F050813B685B68974A93425ED0B6
:10131000954A934275D8954A934258D0934A93423E
:101320006FD8934A934252D0914A934269D8914AD6
:1013300093424CD08F4A934263D88F4A934246D00F
:101340008D4A93425DD8122B2AD8122B59D801A26C
:1013500052F823F0CF130008A9130008BB130008AC
:10136000FD13000803140008031400080314000808
:1013700003140008031400080314000803140008F1
:1013800003140008031400080314000803140008E1
:101390000314000803140008B1130008C513000863
:1013A000764A934213D02CE03B68DB683B6229E02D
:1013B0003B68DB6804333B6224E03B68DB6808334E
:1013C0003B621FE03B68DB680C333B621AE03B6822
:1013D0009B68002B02D104233B6213E03B689B68AF
:1013E000012B05D108233B627B68FA691A6109E089
:1013F00008233B627B68FA695A6103E000233B6281
:1014000000E000BFBB69FF2B01D87B6801E07B686F
:1014100004337B61BB69FF2B02D87B6A9B0002E02F
:101420007B6A083B9B003B617B691A680F213B6923
:1014300001FA03F3DB431A40396A3B6901FA03F30B
:101440001A437B691A603B685B6803F08053002B8A
:1014500000F0A9804A4B9B69494A43F0010393611C
:10146000474B9B6903F00103BB60BB68454A7B6A3D
:101470009B08023352F82330FB607B6A03F00303BE
:101480009B000F2202FA03F3DB43FA681340FB6070
:101490007B683D4A93420DD07B683C4A934207D01B
:1014A0007B683B4A934201D1022304E0032302E01C
:1014B000012300E000237A6A02F0030292009340C5
:1014C000FA681343FB602F497B6A9B080233FA6872
:1014D00041F823203B685B6803F48033002B06D07F
:1014E0002C4B1A682B49BB6913430B6006E0294B50
:1014F0001A68BB69DB43274913400B603B685B6894
:1015000003F40033002B06D0224B5A682149BB69F3
:1015100013434B6006E01F4B5A68BB69DB431D4910
:1015200013404B603B685B6803F48013002B06D0CC
:10153000184B9A681749BB6913438B6006E0154B3B
:101540009A68BB69DB43134913408B603B685B6857
:1015500003F40013002B1FD00E4BDA680D49BB6952
:101560001343CB601FE000BF0000321000003110B9
:1015700000002210000021100000121000001110C5
:10158000001002400000014000080140000C014032
:1015900000100140000401400B4BDA68BB69DB43DB
:1015A00009491340CB607B6A01337B623B681A6850
:1015B0007B6A22FA03F3002B7FF496AE00BF00BFD4
:1015C0002C37BD4680BC70470004014080B586B012
:1015D00000AF78607B68002B01D1012372E27B6849
:1015E0001B6803F00103002B00F08780924B5B68BF
:1015F00003F00C03042B0CD08F4B5B6803F00C033F
:10160000082B12D18C4B5B6803F48033B3F5803F19
:101610000BD1894B1B6803F40033002B6CD07B6823
:101620005B68002B68D101234CE27B685B68B3F5F3
:10163000803F06D1804B1B687F4A43F480331360A0
:101640002EE07B685B68002B0CD17B4B1B687A4AD1
:1016500023F480331360784B1B68774A23F480238C
:1016600013601DE07B685B68B3F5A02F0CD1724B53
:101670001B68714A43F4802313606F4B1B686E4AEA
:1016800043F4803313600BE06B4B1B686A4A23F40E
:1016900080331360684B1B68674A23F48023136010
:1016A0007B685B68002B13D0FFF778FB386108E09C
:1016B000FFF774FB02463B69D31A642B01D903235D
:1016C00000E25D4B1B6803F40033002BF0D014E004
:1016D000FFF764FB386108E0FFF760FB02463B69F7
:1016E000D31A642B01D90323ECE1534B1B6803F499
:1016F0000033002BF0D100E000BF7B681B6803F0D3
:101700000203002B63D04C4B5B6803F00C03002BEF
:101710000BD0494B5B6803F00C03082B1CD1464BE4
:101720005B6803F48033002B16D1434B1B6803F036
:101730000203002B05D07B681B69012B01D001231C
:10174000C0E13D4B1B6823F0F8027B685B69DB005E
:10175000394913430B603AE07B681B69002B20D0AA
:10176000364B01221A60FFF719FB386108E0FFF7DA
:1017700015FB02463B69D31A022B01D90323A1E1D1
:101780002D4B1B6803F00203002BF0D02A4B1B6883
:1017900023F0F8027B685B69DB00274913430B6089
:1017A00015E0264B00221A60FFF7F8FA386108E0CE
:1017B000FFF7F4FA02463B69D31A022B01D903233F
:1017C00080E11D4B1B6803F00203002BF0D17B6806
:1017D0001B6803F00803002B3AD07B689B69002B41
:1017E00019D0174B01221A60FFF7D8FA386108E0C8
:1017F000FFF7D4FA02463B69D31A022B01D903231F
:1018000060E10D4B5B6A03F00203002BF0D0012076
:1018100000F0A6FA1CE00A4B00221A60FFF7BEFA9D
:1018200038610FE0FFF7BAFA02463B69D31A022B80
:1018300008D9032346E100BF0010024000004242E5
:1018400080044242924B5B6A03F00203002BE9D111
:101850007B681B6803F00403002B00F0A6800023C4
:10186000FB758B4BDB6903F08053002B0DD1884B4C
:10187000DB69874A43F08053D361854BDB6903F012
:101880008053BB60BB680123FB75824B1B6803F46C
:101890008073002B18D17F4B1B687E4A43F4807302
:1018A0001360FFF77BFA386108E0FFF777FA02462A
:1018B0003B69D31A642B01D9032303E1754B1B68E1
:1018C00003F48073002BF0D07B68DB68012B06D11A
:1018D0006F4B1B6A6E4A43F0010313622DE07B6875
:1018E000DB68002B0CD16A4B1B6A694A23F00103A9
:1018F0001362674B1B6A664A23F0040313621CE001
:101900007B68DB68052B0CD1614B1B6A604A43F096
:10191000040313625E4B1B6A5D4A43F001031362CA
:101920000BE05B4B1B6A5A4A23F001031362584BCE
:101930001B6A574A23F0040313627B68DB68002BA1
:1019400015D0FFF72BFA38610AE0FFF727FA0246B5
:101950003B69D31A41F28832934201D90323B1E0A3
:101960004B4B1B6A03F00203002BEED014E0FFF791
:1019700015FA38610AE0FFF711FA02463B69D31AFB
:1019800041F28832934201D903239BE0404B1B6A0A
:1019900003F00203002BEED1FB7D012B05D13C4B64
:1019A000DB693B4A23F08053D3617B68DB69002B02
:1019B00000F08780364B5B6803F00C03082B61D086
:1019C0007B68DB69022B46D1334B00221A60FFF79C
:1019D000E5F9386108E0FFF7E1F902463B69D31AFF
:1019E000022B01D903236DE0294B1B6803F0007320
:1019F000002BF0D17B681B6AB3F5803F08D1244BE4
:101A00005B6823F400327B689B68214913434B6079
:101A10001F4B5B6823F474127B68196A7B685B6AEE
:101A20000B431B4913434B601B4B01221A60FFF70A
:101A3000B5F9386108E0FFF7B1F902463B69D31AFE
:101A4000022B01D903233DE0114B1B6803F0007307
:101A5000002BF0D035E0104B00221A60FFF79EF902
:101A6000386108E0FFF79AF902463B69D31A022B66
:101A700001D9032326E0064B1B6803F00073002BFB
:101A8000F0D11EE07B68DB69012B07D1012319E04F
:101A90000010024000700040600042420B4B5B6847
:101AA000FB60FB6803F480327B681B6A9A4206D1B4
:101AB000FB6803F470127B685B6A9A4201D00123D1
:101AC00000E0002318461837BD4680BD00100240D4
:101AD00080B584B000AF786039607B68002B01D19D
:101AE0000123D0E06A4B1B6803F007033A689A426F
:101AF00010D9674B1B6823F0070265493B68134305
:101B00000B60634B1B6803F007033A689A4201D0ED
:101B10000123B8E07B681B6803F00203002B20D090
:101B20007B681B6803F00403002B05D0594B5B68EE
:101B3000584A43F4E06353607B681B6803F0080372
:101B4000002B05D0534B5B68524A43F460535360FB
:101B5000504B5B6823F0F0027B689B684D49134350
:101B60004B607B681B6803F00103002B40D07B684F
:101B70005B68012B07D1474B1B6803F40033002B34
:101B800015D101237FE07B685B68022B07D1414BB5
:101B90001B6803F00073002B09D1012373E03D4B58
:101BA0001B6803F00203002B01D101236BE0394BCA
:101BB0005B6823F003027B685B68364913434B6024
:101BC000FFF7ECF8F8600AE0FFF7E8F80246FB6878
:101BD000D31A41F28832934201D9032353E02D4BAB
:101BE0005B6803F00C027B685B689B009A42EBD158
:101BF000274B1B6803F007033A689A4210D2244B24
:101C00001B6823F0070222493B6813430B60204BFB
:101C10001B6803F007033A689A4201D0012332E0BF
:101C20007B681B6803F00403002B08D0194B5B682A
:101C300023F4E0627B68DB68164913434B607B68E2
:101C40001B6803F00803002B09D0124B5B6823F4D8
:101C500060527B681B69DB000E4913434B6000F048
:101C600021F802460B4B5B681B0903F00F030A497E
:101C7000CB5C22FA03F3094A1360094B1B68184630
:101C8000FFF74AF8002318461037BD4680BD00BF55
:101C90000020024000100240302A0008000000200E
:101CA0000400002090B48AB000AF294B3C1D0FCB3C
:101CB00084E80F0040F201233B800023FB610023F6
:101CC000BB6100237B6200237B6100233B62214BCD
:101CD0005B68FB61FB6903F00C03042B02D0082B4B
:101CE00003D02BE01C4B3B622BE0FB699B0C03F009
:101CF0000F0328333B4413F8243C7B61FB6903F456
:101D00008033002B12D0134B5B685B0C03F0010394
:101D100028333B4413F8283CBB617B690E4A03FB24
:101D200002F2BB69B2FBF3F37B6204E07B690B4A0E
:101D300002FB03F37B627B6A3B6202E0064B3B6281
:101D400000BF3B6A18462837BD4690BC704700BFAD
:101D5000202A00080010024000127A0000093D000D
:101D600080B485B000AF78600A4B1B680A4AA2FBBA
:101D700003235B0A7A6802FB03F3FB6000BFFB6886
:101D80005A1EFA60002BF9D100BF00BF1437BD46C0
:101D900080BC704700000020D34D621080B582B037
:101DA00000AF78607B68002B01D1012341E07B68A4
:101DB00093F83D30DBB2002B06D17B68002283F81C
:101DC0003C207868FEF7B6FE7B68022283F83D204F
:101DD0007B681A687B6804331946104600F0A4FA41
:101DE0007B68012283F846207B68012283F83E202D
:101DF0007B68012283F83F207B68012283F8402022
:101E00007B68012283F841207B68012283F842200D
:101E10007B68012283F843207B68012283F84420F9
:101E20007B68012283F845207B68012283F83D20EE
:101E3000002318460837BD4680BD80B582B000AF8C
:101E400078607B68002B01D1012341E07B6893F827
:101E50003D30DBB2002B06D17B68002283F83C20AA
:101E6000786800F039F87B68022283F83D207B68AF
:101E70001A687B6804331946104600F055FA7B68EF
:101E8000012283F846207B68012283F83E207B688C
:101E9000012283F83F207B68012283F840207B6881
:101EA000012283F841207B68012283F842207B686D
:101EB000012283F843207B68012283F844207B6859
:101EC000012283F845207B68012283F83D2000230E
:101ED00018460837BD4680BD80B483B000AF786037
:101EE00000BF0C37BD4680BC7047000080B584B091
:101EF00000AF786039603B68002B09D17B6893F8AC
:101F00003E30DBB2012B14BF01230023DBB222E001
:101F10003B68042B09D17B6893F83F30DBB2012B7F
:101F200014BF01230023DBB215E03B68082B09D165
:101F30007B6893F84030DBB2012B14BF01230023F0
:101F4000DBB208E07B6893F84130DBB2012B14BFB1
:101F500001230023DBB2002B01D0012359E03B68B1
:101F6000002B04D17B68022283F83E2013E03B68FB
:101F7000042B04D17B68022283F83F200BE03B68EE
:101F8000082B04D17B68022283F8402003E07B68A1
:101F9000022283F841207B681B68012239681846B9
:101FA00000F038FC7B681B681C4A934207D17B68B1
:101FB0001B685A6C7B681B6842F400425A647B6859
:101FC0001B68164A934209D07B681B68B3F1804FA7
:101FD00004D07B681B68124A934211D17B681B684E
:101FE0009B6803F00703FB60FB68062B10D07B683F
:101FF0001B681A687B681B6842F001021A6007E0E0
:102000007B681B681A687B681B6842F001021A60D3
:10201000002318461037BD4680BD00BF002C01408C
:102020000004004080B584B000AFF860B9607A6009
:10203000FB6893F83C30012B01D10223ACE0FB6834
:10204000012283F83C207B680C2B00F29F8001A2C8
:1020500052F823F0892000088D2100088D21000806
:102060008D210008C92000088D2100088D2100085D
:102070008D2100080B2100088D2100088D2100080A
:102080008D2100084B210008FB681B68B9681846C1
:1020900000F0A2F9FB681B689A69FB681B6842F0B4
:1020A00008029A61FB681B689A69FB681B6822F04A
:1020B00004029A61FB681B689969BB681A69FB682E
:1020C0001B680A439A6162E0FB681B68B96818469E
:1020D00000F0E8F9FB681B689A69FB681B6842F42A
:1020E00000629A61FB681B689A69FB681B6822F4AE
:1020F00080629A61FB681B689969BB681B691A0258
:10210000FB681B680A439A6141E0FB681B68B96879
:10211000184600F031FAFB681B68DA69FB681B6837
:1021200042F00802DA61FB681B68DA69FB681B6829
:1021300022F00402DA61FB681B68D969BB681A697E
:10214000FB681B680A43DA6121E0FB681B68B96819
:10215000184600F07BFAFB681B68DA69FB681B68AD
:1021600042F40062DA61FB681B68DA69FB681B688D
:1021700022F48062DA61FB681B68D969BB681B695D
:102180001A02FB681B680A43DA6100E000BFFB68C3
:10219000002283F83C20002318461037BD4680BD3E
:1021A00080B584B000AF786039607B6893F83C30CC
:1021B000012B01D10223B3E07B68012283F83C208C
:1021C0007B68022283F83D207B681B689B68FB606C
:1021D000FB6823F07703FB60FB6823F47F43FB601D
:1021E0007B681B68FA689A603B681B68B3F5005F00
:1021F0003ED0B3F5005F00F28780B3F5805F00F05A
:102200008580B3F5805F7FD8702B1AD0702B7BD878
:10221000602B50D0602B77D8502B3CD0502B73D8EC
:10222000402B58D0402B6FD8302B64D0302B6BD83C
:10223000202B60D0202B67D8002B5CD0102B5AD0DD
:1022400062E07B6818683B6899683B685A683B683D
:10225000DB6800F0C0FA7B681B689B68FB60FB686A
:1022600043F07703FB607B681B68FA689A604EE076
:102270007B6818683B6899683B685A683B68DB680C
:1022800000F0A9FA7B681B689A687B681B6842F4B7
:1022900080429A603BE07B6818683B6859683B68FD
:1022A000DB681A4600F020FA7B681B68502118464C
:1022B00000F077FA2BE07B6818683B6859683B6848
:1022C000DB681A4600F03EFA7B681B6860211846FE
:1022D00000F067FA1BE07B6818683B6859683B6848
:1022E000DB681A4600F000FA7B681B68402118463C
:1022F00000F057FA0BE07B681A683B681B681946C8
:10230000104600F04EFA02E000BF00E000BF7B681C
:10231000012283F83D207B68002283F83C200023C3
:1023200018461037BD4680BD80B485B000AF7860D8
:1023300039607B681B68FB607B68254A934207D045
:102340007B68B3F1804F03D07B68224A934208D167
:10235000FB6823F07003FB603B685B68FA6813431B
:10236000FB607B681A4A934207D07B68B3F1804FC9
:1023700003D07B68174A934208D1FB6823F440736B
:10238000FB603B68DB68FA681343FB60FB6823F083
:1023900080023B685B691343FB607B68FA681A60E4
:1023A0003B689A687B68DA623B681A687B689A6265
:1023B0007B68074A934203D13B681A697B681A63BA
:1023C0007B6801225A6100BF1437BD4680BC70474C
:1023D000002C01400004004080B487B000AF78605A
:1023E00039607B681B6A23F001027B681A627B6894
:1023F0001B6A7B617B685B683B617B689B69FB60F8
:10240000FB6823F07003FB60FB6823F00303FB60B1
:102410003B681B68FA681343FB607B6923F0020387
:102420007B613B689B687A6913437B617B681C4ACC
:1024300093420CD17B6923F008037B613B68DB6826
:102440007A6913437B617B6923F004037B617B68BA
:10245000134A934211D13B6923F480733B613B697A
:1024600023F400733B613B685B693A6913433B614A
:102470003B689B693A6913433B617B683A695A60E0
:102480007B68FA689A613B685A687B685A637B6824
:102490007A691A6200BF1C37BD4680BC704700BF16
:1024A000002C014080B487B000AF786039607B6851
:1024B0001B6A23F010027B681A627B681B6A7B61CF
:1024C0007B685B683B617B689B69FB60FB6823F40E
:1024D000E043FB60FB6823F44073FB603B681B68D0
:1024E0001B02FA681343FB607B6923F020037B61C6
:1024F0003B689B681B017A6913437B617B681D4ABB
:1025000093420DD17B6923F080037B613B68DB68DC
:102510001B017A6913437B617B6923F040037B6174
:102520007B68144A934213D13B6923F480633B6177
:102530003B6923F400633B613B685B699B003A693C
:1025400013433B613B689B699B003A6913433B61C2
:102550007B683A695A607B68FA689A613B685A6896
:102560007B689A637B687A691A6200BF1C37BD4634
:1025700080BC7047002C014080B487B000AF786009
:1025800039607B681B6A23F480727B681A627B68FF
:102590001B6A7B617B685B683B617B68DB69FB6016
:1025A000FB6823F07003FB60FB6823F00303FB6010
:1025B0003B681B68FA681343FB607B6923F4007374
:1025C0007B613B689B681B027A6913437B617B6874
:1025D0001D4A93420DD17B6923F400637B613B6804
:1025E000DB681B027A6913437B617B6923F4806398
:1025F0007B617B68144A934213D13B6923F4805377
:102600003B613B6923F400533B613B685B691B0101
:102610003A6913433B613B689B691B013A69134369
:102620003B617B683A695A607B68FA68DA613B68AB
:102630005A687B68DA637B687A691A6200BF1C3764
:10264000BD4680BC704700BF002C014080B487B0FD
:1026500000AF786039607B681B6A23F480527B6826
:102660001A627B681B6A3B617B685B687B617B6885
:10267000DB69FB60FB6823F4E043FB60FB6823F449
:102680004073FB603B681B681B02FA681343FB60E6
:102690003B6923F400533B613B689B681B033A6929
:1026A00013433B617B680F4A934209D17B6923F452
:1026B00080437B613B685B699B017A6913437B6163
:1026C0007B687A695A607B68FA68DA613B685A68A5
:1026D0007B681A647B683A691A6200BF1C37BD4682
:1026E00080BC7047002C014080B487B000AFF86018
:1026F000B9607A60FB681B6A7B61FB681B6A23F028
:102700000102FB681A62FB689B693B613B6923F02D
:10271000F0033B617B681B013A6913433B617B69B2
:1027200023F00A037B617A69BB6813437B61FB6812
:102730003A699A61FB687A691A6200BF1C37BD4624
:1027400080BC704780B487B000AFF860B9607A6031
:10275000FB681B6A23F01002FB681A62FB689B6926
:102760007B61FB681B6A3B617B6923F470437B617F
:102770007B681B037A6913437B613B6923F0A003E9
:102780003B61BB681B013A6913433B61FB687A6993
:102790009A61FB683A691A6200BF1C37BD4680BC6B
:1027A000704780B485B000AF786039607B689B6803
:1027B000FB60FB6823F07003FB603A68FB6813431F
:1027C00043F00703FB607B68FA689A6000BF143728
:1027D000BD4680BC704780B487B000AFF860B96078
:1027E0007A603B60FB689B687B617B6923F47F4375
:1027F0007B613B681A027B681A43BB6813437A69A2
:1028000013437B61FB687A699A6000BF1C37BD4641
:1028100080BC704780B487B000AFF860B9607A6060
:10282000BB6803F01F03012202FA03F37B61FB681C
:102830001A6A7B69DB431A40FB681A62FB681A6AF2
:10284000BB6803F01F03796801FA03F31A43FB68BE
:102850001A6200BF1C37BD4680BC704780B485B08B
:1028600000AF786039607B6893F83C30012B01D170
:10287000022341E07B68012283F83C207B6802222E
:1028800083F83D207B681B685B68FB607B681B6886
:102890009B68BB60FB6823F07003FB603B681B68B0
:1028A000FA681343FB607B681B68FA685A607B68B0
:1028B0001B68144A934209D07B681B68B3F1804FB0
:1028C00004D07B681B68104A93420CD1BB6823F08C
:1028D0008003BB603B685B68BA681343BB607B687E
:1028E0001B68BA689A607B68012283F83D207B6888
:1028F000002283F83C20002318461437BD4680BCD4
:10290000704700BF002C01400004004080B485B037
:1029100000AF786039600023FB607B6893F83C303F
:10292000012B01D102233DE07B68012283F83C208A
:10293000FB6823F0FF023B68DB681343FB60FB6826
:1029400023F440723B689B681343FB60FB6823F4ED
:1029500080623B685B681343FB60FB6823F40062A2
:102960003B681B681343FB60FB6823F480523B68A1
:102970001B691343FB60FB6823F400523B685B69EF
:102980001343FB60FB6823F480423B68DB6913431D
:10299000FB607B681B68FA685A647B68002283F8D6
:1029A0003C20002318461437BD4680BC7047000009
:1029B00070B500260C4D0D4C641BA410A64209D125
:1029C00000F022F800260A4D0A4C641BA410A6420F
:1029D00005D170BD55F8043B98470136EEE755F830
:1029E000043B98470136F2E7402A0008402A0008D5
:1029F000402A0008442A000803460244934200D1BA
:102A0000704703F8011BF9E7F8B500BFF8BC08BC34
:102A10009E467047F8B500BFF8BC08BC9E4670479C
:102A200002030405060708090A0B0C0D0E0F10100F
:102A3000000000000000000001020304060708096E
:042A40003501000854
:042A44001101000874
:0C2A48000024F400100000000100000059
:0400000508000CA142
:00000001FF
